{"project/contracts/Counter.sol":{"Counter":{"abi":[{"anonymous":false,"inputs":[{"indexed":true,"internalType":"address","name":"user","type":"address"},{"indexed":false,"internalType":"uint256","name":"newValue","type":"uint256"}],"name":"CounterChanged","type":"event"},{"inputs":[],"name":"decrement","outputs":[],"stateMutability":"nonpayable","type":"function"},{"inputs":[{"internalType":"address","name":"user","type":"address"}],"name":"getCounter","outputs":[{"internalType":"uint256","name":"","type":"uint256"}],"stateMutability":"view","type":"function"},{"inputs":[],"name":"getMyCounter","outputs":[{"internalType":"uint256","name":"","type":"uint256"}],"stateMutability":"view","type":"function"},{"inputs":[],"name":"increment","outputs":[],"stateMutability":"nonpayable","type":"function"},{"inputs":[],"name":"reset","outputs":[],"stateMutability":"nonpayable","type":"function"},{"inputs":[{"internalType":"uint256","name":"value","type":"uint256"}],"name":"setCounter","outputs":[],"stateMutability":"nonpayable","type":"function"}],"evm":{"bytecode":{"linkReferences":{},"object":"608060405234801561000f575f80fd5b506102ff8061001d5f395ff3fe608060405234801561000f575f80fd5b5060043610610060575f3560e01c80632baeceb7146100645780638bb5d9c31461006e578063916d574314610081578063d09de08a146100a3578063d826f88f146100ab578063f07ec373146100b3575b5f80fd5b61006c6100db565b005b61006c61007c366004610245565b6101a2565b335f908152602081905260409020545b60405190815260200160405180910390f35b61006c6101e8565b61006c610207565b6100916100c136600461025c565b6001600160a01b03165f9081526020819052604090205490565b335f9081526020819052604090205461013a5760405162461bcd60e51b815260206004820152601c60248201527f436f756e7465722063616e6e6f7420676f2062656c6f77207a65726f00000000604482015260640160405180910390fd5b335f90815260208190526040812080546001929061015990849061029d565b9091555050335f81815260208181526040918290205491519182527f033d8c22108c6c124199edf9ffc9cbdfd0477368b48d2e3c9e877f84fa3f712191015b60405180910390a2565b335f818152602081815260409182902084905590518381527f033d8c22108c6c124199edf9ffc9cbdfd0477368b48d2e3c9e877f84fa3f7121910160405180910390a250565b335f9081526020819052604081208054600192906101599084906102b6565b335f81815260208181526040808320839055519182527f033d8c22108c6c124199edf9ffc9cbdfd0477368b48d2e3c9e877f84fa3f71219101610198565b5f60208284031215610255575f80fd5b5035919050565b5f6020828403121561026c575f80fd5b81356001600160a01b0381168114610282575f80fd5b9392505050565b634e487b7160e01b5f52601160045260245ffd5b818103818111156102b0576102b0610289565b92915050565b808201808211156102b0576102b061028956fea2646970667358221220b989dcf4fe3a4e8d39538062d3dc26fd4a70ad9bd9bb60669ca45b6948ddb17264736f6c63430008140033","opcodes":"PUSH1 0x80 PUSH1 0x40 MSTORE CALLVALUE DUP1 ISZERO PUSH2 0xF JUMPI PUSH0 DUP1 REVERT JUMPDEST POP PUSH2 0x2FF DUP1 PUSH2 0x1D PUSH0 CODECOPY PUSH0 RETURN INVALID PUSH1 0x80 PUSH1 0x40 MSTORE CALLVALUE DUP1 ISZERO PUSH2 0xF JUMPI PUSH0 DUP1 REVERT JUMPDEST POP PUSH1 0x4 CALLDATASIZE LT PUSH2 0x60 JUMPI PUSH0 CALLDATALOAD PUSH1 0xE0 SHR DUP1 PUSH4 0x2BAECEB7 EQ PUSH2 0x64 JUMPI DUP1 PUSH4 0x8BB5D9C3 EQ PUSH2 0x6E JUMPI DUP1 PUSH4 0x916D5743 EQ PUSH2 0x81 JUMPI DUP1 PUSH4 0xD09DE08A EQ PUSH2 0xA3 JUMPI DUP1 PUSH4 0xD826F88F EQ PUSH2 0xAB JUMPI DUP1 PUSH4 0xF07EC373 EQ PUSH2 0xB3 JUMPI JUMPDEST PUSH0 DUP1 REVERT JUMPDEST PUSH2 0x6C PUSH2 0xDB JUMP JUMPDEST STOP JUMPDEST PUSH2 0x6C PUSH2 0x7C CALLDATASIZE PUSH1 0x4 PUSH2 0x245 JUMP JUMPDEST PUSH2 0x1A2 JUMP JUMPDEST CALLER PUSH0 SWAP1 DUP2 MSTORE PUSH1 0x20 DUP2 SWAP1 MSTORE PUSH1 0x40 SWAP1 KECCAK256 SLOAD JUMPDEST PUSH1 0x40 MLOAD SWAP1 DUP2 MSTORE PUSH1 0x20 ADD PUSH1 0x40 MLOAD DUP1 SWAP2 SUB SWAP1 RETURN JUMPDEST PUSH2 0x6C PUSH2 0x1E8 JUMP JUMPDEST PUSH2 0x6C PUSH2 0x207 JUMP JUMPDEST PUSH2 0x91 PUSH2 0xC1 CALLDATASIZE PUSH1 0x4 PUSH2 0x25C JUMP JUMPDEST PUSH1 0x1 PUSH1 0x1 PUSH1 0xA0 SHL SUB AND PUSH0 SWAP1 DUP2 MSTORE PUSH1 0x20 DUP2 SWAP1 MSTORE PUSH1 0x40 SWAP1 KECCAK256 SLOAD SWAP1 JUMP JUMPDEST CALLER PUSH0 SWAP1 DUP2 MSTORE PUSH1 0x20 DUP2 SWAP1 MSTORE PUSH1 0x40 SWAP1 KECCAK256 SLOAD PUSH2 0x13A JUMPI PUSH1 0x40 MLOAD PUSH3 0x461BCD PUSH1 0xE5 SHL DUP2 MSTORE PUSH1 0x20 PUSH1 0x4 DUP3 ADD MSTORE PUSH1 0x1C PUSH1 0x24 DUP3 ADD MSTORE PUSH32 0x436F756E7465722063616E6E6F7420676F2062656C6F77207A65726F00000000 PUSH1 0x44 DUP3 ADD MSTORE PUSH1 0x64 ADD PUSH1 0x40 MLOAD DUP1 SWAP2 SUB SWAP1 REVERT JUMPDEST CALLER PUSH0 SWAP1 DUP2 MSTORE PUSH1 0x20 DUP2 SWAP1 MSTORE PUSH1 0x40 DUP2 KECCAK256 DUP1 SLOAD PUSH1 0x1 SWAP3 SWAP1 PUSH2 0x159 SWAP1 DUP5 SWAP1 PUSH2 0x29D JUMP JUMPDEST SWAP1 SWAP2 SSTORE POP POP CALLER PUSH0 DUP2 DUP2 MSTORE PUSH1 0x20 DUP2 DUP2 MSTORE PUSH1 0x40 SWAP2 DUP3 SWAP1 KECCAK256 SLOAD SWAP2 MLOAD SWAP2 DUP3 MSTORE PUSH32 0x33D8C22108C6C124199EDF9FFC9CBDFD0477368B48D2E3C9E877F84FA3F7121 SWAP2 ADD JUMPDEST PUSH1 0x40 MLOAD DUP1 SWAP2 SUB SWAP1 LOG2 JUMP JUMPDEST CALLER PUSH0 DUP2 DUP2 MSTORE PUSH1 0x20 DUP2 DUP2 MSTORE PUSH1 0x40 SWAP2 DUP3 SWAP1 KECCAK256 DUP5 SWAP1 SSTORE SWAP1 MLOAD DUP4 DUP2 MSTORE PUSH32 0x33D8C22108C6C124199EDF9FFC9CBDFD0477368B48D2E3C9E877F84FA3F7121 SWAP2 ADD PUSH1 0x40 MLOAD DUP1 SWAP2 SUB SWAP1 LOG2 POP JUMP JUMPDEST CALLER PUSH0 SWAP1 DUP2 MSTORE PUSH1 0x20 DUP2 SWAP1 MSTORE PUSH1 0x40 DUP2 KECCAK256 DUP1 SLOAD PUSH1 0x1 SWAP3 SWAP1 PUSH2 0x159 SWAP1 DUP5 SWAP1 PUSH2 0x2B6 JUMP JUMPDEST CALLER PUSH0 DUP2 DUP2 MSTORE PUSH1 0x20 DUP2 DUP2 MSTORE PUSH1 0x40 DUP1 DUP4 KECCAK256 DUP4 SWAP1 SSTORE MLOAD SWAP2 DUP3 MSTORE PUSH32 0x33D8C22108C6C124199EDF9FFC9CBDFD0477368B48D2E3C9E877F84FA3F7121 SWAP2 ADD PUSH2 0x198 JUMP JUMPDEST PUSH0 PUSH1 0x20 DUP3 DUP5 SUB SLT ISZERO PUSH2 0x255 JUMPI PUSH0 DUP1 REVERT JUMPDEST POP CALLDATALOAD SWAP2 SWAP1 POP JUMP JUMPDEST PUSH0 PUSH1 0x20 DUP3 DUP5 SUB SLT ISZERO PUSH2 0x26C JUMPI PUSH0 DUP1 REVERT JUMPDEST DUP2 CALLDATALOAD PUSH1 0x1 PUSH1 0x1 PUSH1 0xA0 SHL SUB DUP2 AND DUP2 EQ PUSH2 0x282 JUMPI PUSH0 DUP1 REVERT JUMPDEST SWAP4 SWAP3 POP POP POP JUMP JUMPDEST PUSH4 0x4E487B71 PUSH1 0xE0 SHL PUSH0 MSTORE PUSH1 0x11 PUSH1 0x4 MSTORE PUSH1 0x24 PUSH0 REVERT JUMPDEST DUP2 DUP2 SUB DUP2 DUP2 GT ISZERO PUSH2 0x2B0 JUMPI PUSH2 0x2B0 PUSH2 0x289 JUMP JUMPDEST SWAP3 SWAP2 POP POP JUMP JUMPDEST DUP1 DUP3 ADD DUP1 DUP3 GT ISZERO PUSH2 0x2B0 JUMPI PUSH2 0x2B0 PUSH2 0x289 JUMP INVALID LOG2 PUSH5 0x6970667358 0x22 SLT KECCAK256 0xB9 DUP10 0xDC DELEGATECALL INVALID GASPRICE 0x4E DUP14 CODECOPY MSTORE8 DUP1 PUSH3 0xD3DC26 REVERT 0x4A PUSH17 0xAD9BD9BB60669CA45B6948DDB17264736F PUSH13 0x63430008140033000000000000 "},"methodIdentifiers":{"decrement()":"2baeceb7","getCounter(address)":"f07ec373","getMyCounter()":"916d5743","increment()":"d09de08a","reset()":"d826f88f","setCounter(uint256)":"8bb5d9c3"}}}}}