{
  "_format": "hh3-artifact-1",
  "contractName": "Counter",
  "sourceName": "contracts/Counter.sol",
  "abi": [
    {
      "anonymous": false,
      "inputs": [
        {
          "indexed": true,
          "internalType": "address",
          "name": "user",
          "type": "address"
        },
        {
          "indexed": false,
          "internalType": "uint256",
          "name": "newValue",
          "type": "uint256"
        }
      ],
      "name": "CounterChanged",
      "type": "event"
    },
    {
      "inputs": [],
      "name": "decrement",
      "outputs": [],
      "stateMutability": "nonpayable",
      "type": "function"
    },
    {
      "inputs": [
        {
          "internalType": "address",
          "name": "user",
          "type": "address"
        }
      ],
      "name": "getCounter",
      "outputs": [
        {
          "internalType": "uint256",
          "name": "",
          "type": "uint256"
        }
      ],
      "stateMutability": "view",
      "type": "function"
    },
    {
      "inputs": [],
      "name": "getMyCounter",
      "outputs": [
        {
          "internalType": "uint256",
          "name": "",
          "type": "uint256"
        }
      ],
      "stateMutability": "view",
      "type": "function"
    },
    {
      "inputs": [],
      "name": "increment",
      "outputs": [],
      "stateMutability": "nonpayable",
      "type": "function"
    },
    {
      "inputs": [],
      "name": "reset",
      "outputs": [],
      "stateMutability": "nonpayable",
      "type": "function"
    },
    {
      "inputs": [
        {
          "internalType": "uint256",
          "name": "value",
          "type": "uint256"
        }
      ],
      "name": "setCounter",
      "outputs": [],
      "stateMutability": "nonpayable",
      "type": "function"
    }
  ],
  "bytecode": "0x608060405234801561000f575f80fd5b506102ff8061001d5f395ff3fe608060405234801561000f575f80fd5b5060043610610060575f3560e01c80632baeceb7146100645780638bb5d9c31461006e578063916d574314610081578063d09de08a146100a3578063d826f88f146100ab578063f07ec373146100b3575b5f80fd5b61006c6100db565b005b61006c61007c366004610245565b6101a2565b335f908152602081905260409020545b60405190815260200160405180910390f35b61006c6101e8565b61006c610207565b6100916100c136600461025c565b6001600160a01b03165f9081526020819052604090205490565b335f9081526020819052604090205461013a5760405162461bcd60e51b815260206004820152601c60248201527f436f756e7465722063616e6e6f7420676f2062656c6f77207a65726f00000000604482015260640160405180910390fd5b335f90815260208190526040812080546001929061015990849061029d565b9091555050335f81815260208181526040918290205491519182527f033d8c22108c6c124199edf9ffc9cbdfd0477368b48d2e3c9e877f84fa3f712191015b60405180910390a2565b335f818152602081815260409182902084905590518381527f033d8c22108c6c124199edf9ffc9cbdfd0477368b48d2e3c9e877f84fa3f7121910160405180910390a250565b335f9081526020819052604081208054600192906101599084906102b6565b335f81815260208181526040808320839055519182527f033d8c22108c6c124199edf9ffc9cbdfd0477368b48d2e3c9e877f84fa3f71219101610198565b5f60208284031215610255575f80fd5b5035919050565b5f6020828403121561026c575f80fd5b81356001600160a01b0381168114610282575f80fd5b9392505050565b634e487b7160e01b5f52601160045260245ffd5b818103818111156102b0576102b0610289565b92915050565b808201808211156102b0576102b061028956fea2646970667358221220b989dcf4fe3a4e8d39538062d3dc26fd4a70ad9bd9bb60669ca45b6948ddb17264736f6c63430008140033",
  "linkReferences": {},
  "deployedLinkReferences": {},
  "immutableReferences": {},
  "inputSourceName": "project/contracts/Counter.sol",
  "buildInfoId": "solc-0_8_20-0c2376c110466d5ff7412d29b23a1db6409c3d4c"
}